:100000000C942E000C944B000C944B000C944B0061
:100010000C944B000C944B000C944B000C944B0034
:100020000C944B000C944B000C94AF020C944B00BE
:100030000C944B000C94B9020C944B000C944B00A4
:100040000C944B000C944B000C944B000C944B0004
:100050000C944B000C944B000C944B0011241FBECD
:10006000CFEFD4E0DEBFCDBF11E0A0E0B1E0EEE81D
:10007000FAE002C005900D92A030B107D9F721E057
:10008000A0E0B1E001C01D92A330B207E1F70E94E9
:1000900059020C9445050C94000085B18F7E85B9FA
:1000A00085B1806185B908959EB19F779EB99EB153
:1000B00090649EB982B90E944D0008952EB12068C7
:1000C0002EB9809301019093020182B980910201BF
:1000D00088B90E944D000895CF93DF93EB0125B1BD
:1000E0002F7B25B90E945400CE010E945E0085B18D
:1000F000806485B9DF91CF9108958FEF81B987B979
:10010000089511B817B82FEF8FE392E02150804087
:100110009040E1F700C000000895CF92DF92EF9287
:10012000FF92CF93DF93EC0185B18F7B85B982E29B
:1001300090E00E945400C12CD12C760108C0CE0161
:100140000E945E008FEFC81AD80AE80AF80AC114A4
:100150008CE2D80681E0E806F10488F385B180647A
:1001600085B9DF91CF91FF90EF90DF90CF90089508
:10017000CF93DF9385B18F7B85B982E290E00E94B7
:100180005400C0E0D0E005C08FEF9FEF0E945E00FA
:100190002196C1158EE1D807BCF3C0E0D0E005C0C0
:1001A00080E090E00E945E002196C1158EE1D807A4
:1001B000BCF3C0E0D0E005C08EED97EF0E945E007A
:1001C0002196C1158EE1D807BCF3C0E0D0E005C090
:1001D00080E098EF0E945E002196C1158EE1D8075D
:1001E000BCF3C0E0D0E005C087EE9CEF0E945E004B
:1001F0002196C1158EE1D807BCF3C0E0D0E005C060
:100200008FE190E00E945E002196C1158EE1D80733
:10021000BCF3C0E0D0E005C08FE198EF0E945E0023
:100220002196C1158EE1D807BCF3C0E0D0E005C02F
:1002300080EE97E00E945E002196C1158EE1D807FE
:10024000BCF3C0E0D0E005C080EE9FEF0E945E00EE
:100250002196C1158EE1D807BCF3C0E0D0E005C0FF
:100260008FE195E00E945E002196C1158EE1D807CE
:10027000BCF385B1806485B9DF91CF9108952FEFEC
:100280008FE392E0215080409040E1F700C00000F1
:1002900085B1816085B98FEF93E20197F1F700C0D6
:1002A000000085B18E7F85B98FEF9BE60197F1F74E
:1002B00000C0000085B1816085B98FEF9BE6019792
:1002C000F1F700C0000061E270E087E090E00E947A
:1002D0006C0061E070E080E090E00E946C0063E2FE
:1002E00070E087E090E00E946C0060E070E080E1E8
:1002F00090E00E946C008FEF97ED0197F1F700C03E
:10030000000063E370E087E090E00E946C0060E32F
:1003100078E681E190E00E946C0060E070E082E0AD
:1003200090E00E946C000E94B80060E070E182E002
:1003300090E00E946C00089585B18F7B85B90E9482
:100340007D008FEF9FEF0E948D0080E090E00E9483
:100350008D008EED97EF0E948D008FE190E00E945E
:100360008D008FE195E00E948D0080E098EF0E9463
:100370008D008FE198EF0E948D0080EE97E00E9443
:100380008D0080EE9FEF0E948D008FEF9FE70E940F
:100390008D0087EE9CEF0E948D000E94B80085B111
:1003A000806485B90895CF93DF930E9481008EB158
:1003B0008F7B8EB986B180B1C6B1D0E0DC2FCC275F
:1003C00080B1C82B8EB180648EB90E947D00CE01B1
:1003D000DF91CF9108951F93CF93DF9385B18F7BEA
:1003E00085B98EB18F778EB90E94D301C82FD92FCE
:1003F0008DE00E94970483E50E94970483E40E94A5
:10040000970482E50E94970485E40E94970485E49E
:100410000E9497048EE40E94970480E20E94970451
:1004200083E50E94970484E50E94970481E40E947A
:10043000970484E50E94970485E50E94970483E56C
:100440000E9497048AE30E94970480E20E94970426
:1004500080E30E94970488E70E9497041D2F1F7075
:100460008D2F82958F700E94AD040E949704812F7A
:100470000E94AD040E949704DC2FDF708C2F8295C0
:100480008F700E94AD040E9497048D2F0E94AD04CE
:100490000E9497048DE00E94970485B1806485B91D
:1004A000DF91CF911F91089514BC82E080936E007C
:1004B000089584B1816084B984B1806484B984B1C1
:1004C000806284B984B1806184B984B1806884B960
:1004D0008DB180618DB98DB180628DB98DB180642F
:1004E0008DB98DB180688DB98DB188608DB985B1B8
:1004F0008F7785B985B1806485B985B1806185B90B
:100500008EB180648EB98EB180688EB98EB18860EC
:100510008EB98FEF81B987B90E947D040E943F0197
:100520000E94540278940E94E7040E941A0500E099
:1005300010E0980147EE5CEF6FE175E08FE198EF16
:100540000E94F50300E01CE221E030E040E050E0D2
:100550006FEF7FEF80E090E00E94F503FFCF1F92E6
:100560000F920FB60F9211240F900FBE0F901F9095
:1005700018951F920F920FB60F9211240F931F938D
:100580002F933F934F935F936F937F938F939F939B
:10059000AF93BF93CF93EF93FF93C091C600CC234B
:1005A00009F44FC0CD3231F48091000180958093E1
:1005B000000147C0C33719F40E94E70442C0CC369B
:1005C00019F40E94EB013DC0C23629F480E098EF97
:1005D0000E948D0036C0C73769F400E01CE221E0BC
:1005E00030E040EE57E060E078EF8FE190E00E946D
:1005F000F50327C0C13331F460E070E0CB010E9405
:10060000B2031FC0C23339F460E07CE281E090E0C5
:100610000E94B20316C0C33339F460E078E582E08B
:1006200090E00E94B2030DC0C43519F40E949C01F1
:1006300008C0CF3631F468EE73E080E090E00E94AD
:100640005F0380910001882369F0C03240F4C73015
:1006500031F0CD3021F0CA3011F0C83019F48C2FB0
:100660000E949704FF91EF91CF91BF91AF919F911D
:100670008F917F916F915F914F913F912F911F913A
:100680000F910F900FBE0F901F9018958EB18F7D18
:100690008EB982E08A95F1F700C08EB180628EB982
:1006A00008958EB18F7E8EB98EB180618EB9089516
:1006B0008EB180618EB98EB180628EB908958F92AD
:1006C0009F92AF92BF92CF92DF92EF92FF92CF9321
:1006D0006B017C0185B1806485B90E9458030E943A
:1006E0007D00CE2DCF708D2C9E2CAF2CBB248DE0A9
:1006F0000E9497048C2F0E94CA04882D0E94CA046D
:100700008C2D0E94CA048DE00E949704C2B888B85C
:100710008EB18F708EB92EB130E1C39FC00111240C
:10072000822B8EB98FEF97E40197F1F700C000009C
:1007300085B1816085B98EB1877F8EB98FEF97E4DF
:100740000197F1F700C000000E944D000E9458037D
:10075000CF91FF90EF90DF90CF90BF90AF909F90A0
:100760008F900895CF92DF92EF92FF926B017C0100
:100770000E945803C701B6010E945F0385B18068DB
:1007800085B985B1816085B98EB188608EB985B132
:100790008F7B85B982E290E00E9454008EB1806820
:1007A0008EB90E948100C12CD12C760109C00E9413
:1007B00051030E944D008FEFC81AD80AE80AF80AC0
:1007C000C1148CE2D80681E0E806F10480F3FF90C2
:1007D000EF90DF90CF9008958093010190930201F4
:1007E00082B98091020188B908954F925F926F9209
:1007F0007F92AF92BF92CF92DF92EF92FF920F93D0
:100800001F93CF93DF937C015B01EA01280139013B
:100810000E945803C301B2010E945F0385B1806842
:1008200085B98EB188608EB985B1816085B985B191
:100830008F7B85B98EB180618EB982E290E00E9493
:1008400054008EB180688EB9412C512C32010CC0FD
:10085000C7010E94EC030E9446030E944D008FEFE7
:10086000481A580A680A780A411484E6580661044E
:10087000710470F3C12CD12C76010CC0C5010E940B
:10088000EC030E9446030E944D008FEFC81AD80A5D
:10089000E80AF80AC11484E6D806E104F10470F30A
:1008A000C12CD12C76010CC0CE010E94EC030E9419
:1008B00046030E944D008FEFC81AD80AE80AF80ACA
:1008C000C11484E6D806E104F10470F385B18064B4
:1008D00085B985B18F7785B90E945803DF91CF9193
:1008E0001F910F91FF90EF90DF90CF90BF90AF904E
:1008F0007F906F905F904F9008958FE28093C40037
:100900001092C5001092C00088E98093C10086E073
:100910008093C2000895803248F4873039F08D30DA
:1009200029F08A3019F0883009F080E4089520E039
:1009300030E09091C00095FF07C00E948B04809327
:10094000C60081E090E008952F5F3F4F293E93E07D
:1009500039077CF380E090E00895805D8A33C8F029
:100960008A3361F08B3361F08C3361F08D3361F049
:100970008E3361F08F3361F486E4089581E4089545
:1009800082E4089583E4089584E4089585E4089555
:1009900080E00895CF93DF93C82F80E30E949704EF
:1009A00088E70E949704DC2FDF708C2F82958F7070
:1009B0000E94AD040E9497048D2F0E94AD040E94F6
:1009C000970480E20E949704DF91CF9108958DE013
:1009D0000E9497048DE20E9497048DE00E94970484
:1009E00083E50E94970489E70E94970483E70E94A9
:1009F000970484E70E94970485E60E9497048DE699
:100A00000E94970480E20E94970483E60E94970464
:100A100088E60E94970485E60E94970483E60E9478
:100A200097048BE60E9497048AE30E9497040E9431
:100A3000EB01089582E40E9497048CE60E949704DB
:100A400089E60E94970484E70E94970484E70E9445
:100A5000970485E60E94970482E70E94970480E24B
:100A60000E94970482E70E94970485E60E949704FB
:100A700081E60E94970484E60E94970489E70E9419
:0E0A800097048DE00E9497040895F894FFCF2C
:00000001FF
