:100000000C942E000C944B000C944B000C944B0061
:100010000C944B000C944B000C944B000C944B0034
:100020000C944B000C944B000C94B8020C944B00B5
:100030000C944B000C94C2020C944B000C944B009B
:100040000C944B000C944B000C944B000C944B0004
:100050000C944B000C944B000C944B0011241FBECD
:10006000CFEFD4E0DEBFCDBF11E0A0E0B1E0E0EA29
:10007000FAE002C005900D92A030B107D9F721E057
:10008000A0E0B1E001C01D92A330B207E1F70E94E9
:1000900062020C944E050C94000085B18F7E85B9E8
:1000A00085B1806185B908959EB19F779EB99EB153
:1000B00090649EB982B90E944D0008952EB12068C7
:1000C0002EB9809301019093020182B980910201BF
:1000D00088B90E944D000895CF93DF93EB0125B1BD
:1000E0002F7B25B90E945400CE010E945E0085B18D
:1000F000806485B9DF91CF9108958FEF81B987B979
:10010000089511B817B82FEF8FE392E02150804087
:100110009040E1F700C000000895CF92DF92EF9287
:10012000FF92CF93DF93EC0185B18F7B85B982E29B
:1001300090E00E945400C12CD12C760108C0CE0161
:100140000E945E002FEFC21AD20AE20AF20AC1141C
:100150008CE2D80681E0E806F10488F39FEF2FE7F0
:1001600086E1915020408040E1F700C0000085B159
:10017000806485B9DF91CF91FF90EF90DF90CF90B1
:100180000895CF93DF9385B18F7B85B982E290E0AC
:100190000E945400C0E0D0E005C08FEF9FEF0E94A6
:1001A0005E002196C1158EE1D807BCF3C0E0D0E017
:1001B00005C080E090E00E945E002196C1158EE1AE
:1001C000D807BCF3C0E0D0E005C08EED97EF0E94E9
:1001D0005E002196C1158EE1D807BCF3C0E0D0E0E7
:1001E00005C080E098EF0E945E002196C1158EE167
:1001F000D807BCF3C0E0D0E005C087EE9CEF0E94BA
:100200005E002196C1158EE1D807BCF3C0E0D0E0B6
:1002100005C08FE190E00E945E002196C1158EE13D
:10022000D807BCF3C0E0D0E005C08FE198EF0E9492
:100230005E002196C1158EE1D807BCF3C0E0D0E086
:1002400005C080EE97E00E945E002196C1158EE108
:10025000D807BCF3C0E0D0E005C080EE9FEF0E945D
:100260005E002196C1158EE1D807BCF3C0E0D0E056
:1002700005C08FE195E00E945E002196C1158EE1D8
:10028000D807BCF385B1806485B9DF91CF9108951B
:100290002FEF8FE392E0215080409040E1F700C0C3
:1002A000000085B1816085B98FEF93E20197F1F786
:1002B00000C0000085B18E7F85B98FEF9BE6019766
:1002C000F1F700C0000085B1816085B98FEF9BE632
:1002D0000197F1F700C0000061E270E087E090E074
:1002E0000E946C0061E070E080E090E00E946C0091
:1002F00063E270E087E090E00E946C0060E070E0F4
:1003000080E190E00E946C008FEF97ED0197F1F78C
:1003100000C0000063E370E087E090E00E946C00A2
:1003200060E378E681E190E00E946C0060E070E0BC
:1003300082E090E00E946C000E94C10060E070E1E9
:1003400082E090E00E946C00089585B18F7B85B9B2
:100350000E947D008FEF9FEF0E948D0080E090E073
:100360000E948D008EED97EF0E948D008FE190E04E
:100370000E948D008FE195E00E948D0080E098EF53
:100380000E948D008FE198EF0E948D0080EE97E033
:100390000E948D0080EE9FEF0E948D008FEF9FE7FF
:1003A0000E948D0087EE9CEF0E948D000E94C1008C
:1003B00085B1806485B90895CF93DF930E94810051
:1003C0008EB18F7B8EB986B180B1C6B1D0E0DC2F03
:1003D000CC2780B1C82B8EB180648EB90E947D007D
:1003E000CE01DF91CF9108951F93CF93DF9385B115
:1003F0008F7B85B98EB18F778EB90E94DC01C82FB3
:10040000D92F8DE00E94A00483E50E94A00483E41C
:100410000E94A00482E50E94A00485E40E94A0043A
:1004200085E40E94A0048EE40E94A00480E20E9461
:10043000A00483E50E94A00484E50E94A00481E456
:100440000E94A00484E50E94A00485E50E94A00407
:1004500083E50E94A0048AE30E94A00480E20E9437
:10046000A00480E30E94A00488E70E94A0041D2F3E
:100470001F708D2F82958F700E94B6040E94A00479
:10048000812F0E94B6040E94A004DC2FDF708C2F05
:1004900082958F700E94B6040E94A0048D2F0E9446
:1004A000B6040E94A0048DE00E94A00485B180647F
:1004B00085B9DF91CF911F91089514BC82E080939C
:1004C0006E00089584B1816084B984B1806484B978
:1004D00084B1806284B984B1806184B984B1806858
:1004E00084B98DB180618DB98DB180628DB98DB1C6
:1004F00080648DB98DB180688DB98DB188608DB9FA
:1005000085B18F7785B985B1806485B985B1806102
:1005100085B98EB180648EB98EB180688EB98EB186
:1005200088608EB98FEF81B987B90E9486040E94D6
:1005300048010E945D0278940E94F0040E94230505
:1005400000E010E0980147EE5CEF6FE175E08FE1AD
:1005500098EF0E94FE0300E01CE221E030E040E062
:1005600050E06FEF7FEF80E090E00E94FE03FFCF4E
:100570001F920F920FB60F9211240F900FBE0F9083
:100580001F9018951F920F920FB60F9211240F9380
:100590001F932F933F934F935F936F937F938F930B
:1005A0009F93AF93BF93CF93EF93FF93C091C600F8
:1005B000CC2309F44FC0CD3231F4809100018095F5
:1005C0008093000147C0C33719F40E94F00442C071
:1005D000CC3619F40E94F4013DC0C23629F480E003
:1005E00098EF0E948D0036C0C73769F400E01CE226
:1005F00021E030E040EE57E060E078EF8FE190E0FE
:100600000E94FE0327C0C13331F460E070E0CB01EB
:100610000E94BB031FC0C23339F460E07CE281E07A
:1006200090E00E94BB0316C0C33339F460E078E564
:1006300082E090E00E94BB030DC0C43519F40E9413
:10064000A50108C0CF3631F468EE73E080E090E099
:100650000E94680380910001882369F0C03240F451
:10066000C73031F0CD3021F0CA3011F0C83019F464
:100670008C2F0E94A004FF91EF91CF91BF91AF9179
:100680009F918F917F916F915F914F913F912F91AA
:100690001F910F910F900FBE0F901F9018958EB164
:1006A0008F7D8EB982E08A95F1F700C08EB18062AD
:1006B0008EB908958EB18F7E8EB98EB180618EB95C
:1006C00008958EB180618EB98EB180628EB9089521
:1006D0008F929F92AF92BF92CF92DF92EF92FF9252
:1006E000CF936B017C0185B1806485B90E94610361
:1006F0000E947D00CE2DCF708D2C9E2CAF2CBB2464
:100700008DE00E94A0048C2F0E94D304882D0E94AB
:10071000D3048C2D0E94D3048DE00E94A004C2B8A3
:1007200088B88EB18F708EB92EB130E1C39FC001F1
:100730001124822B8EB98FEF97E40197F1F700C057
:10074000000085B1816085B98EB1877F8EB98FEF4A
:1007500097E40197F1F700C000000E944D000E944D
:100760006103CF91FF90EF90DF90CF90BF90AF905B
:100770009F908F900895CF92DF92EF92FF926B013E
:100780007C010E946103C701B6010E94680385B124
:10079000806885B985B1816085B98EB188608EB970
:1007A00085B18F7B85B982E290E00E9454008EB1C2
:1007B00080688EB90E948100C12CD12C760109C0BD
:1007C0000E945A030E944D008FEFC81AD80AE80A07
:1007D000F80AC1148CE2D80681E0E806F10480F33F
:1007E000FF90EF90DF90CF90089580930101909358
:1007F000020182B98091020188B908954F925F92F7
:100800006F927F92AF92BF92CF92DF92EF92FF9260
:100810000F931F93CF93DF937C015B01EA012801C3
:1008200039010E946103C301B2010E94680385B1CE
:10083000806885B98EB188608EB985B1816085B9CF
:1008400085B18F7B85B98EB180618EB982E290E0EF
:100850000E9454008EB180688EB9412C512C320117
:100860000CC0C7010E94F5030E944F030E944D0077
:100870008FEF481A580A680A780A411484E6580625
:100880006104710470F3C12CD12C76010CC0C50138
:100890000E94F5030E944F030E944D008FEFC81A7B
:1008A000D80AE80AF80AC11484E6D806E104F1047B
:1008B00070F3C12CD12C76010CC0CE010E94F5033F
:1008C0000E944F030E944D008FEFC81AD80AE80A11
:1008D000F80AC11484E6D806E104F10470F385B186
:1008E000806485B985B18F7785B90E946103DF91F6
:1008F000CF911F910F91FF90EF90DF90CF90BF901D
:10090000AF907F906F905F904F9008958FE28093AB
:10091000C4001092C5001092C00088E98093C10005
:1009200086E08093C2000895803248F4873039F021
:100930008D3029F08A3019F0883009F080E408956C
:1009400020E030E09091C00095FF07C00E94940421
:100950008093C60081E090E008952F5F3F4F293ECD
:1009600093E039077CF380E090E00895805D8A335E
:10097000C8F08A3361F08B3361F08C3361F08D33D2
:1009800061F08E3361F08F3361F486E4089581E481
:10099000089582E4089583E4089584E4089585E445
:1009A000089580E00895CF93DF93C82F80E30E94DD
:1009B000A00488E70E94A004DC2FDF708C2F8295B2
:1009C0008F700E94B6040E94A0048D2F0E94B6046E
:1009D0000E94A00480E20E94A004DF91CF910895BC
:1009E0008DE00E94A0048DE20E94A0048DE00E9490
:1009F000A00483E50E94A00489E70E94A00483E785
:100A00000E94A00484E70E94A00485E60E94A0043E
:100A10008DE60E94A00480E20E94A00483E60E946A
:100A2000A00488E60E94A00485E60E94A00483E654
:100A30000E94A0048BE60E94A0048AE30E94A00406
:100A40000E94F401089582E40E94A0048CE60E94B2
:100A5000A00489E60E94A00484E70E94A00484E721
:100A60000E94A00485E60E94A00482E70E94A004E0
:100A700080E20E94A00482E70E94A00485E60E9412
:100A8000A00481E60E94A00484E60E94A00489E7F5
:100A90000E94A0048DE00E94A0040895F894FFCF66
:00000001FF
