S01A0000426C69747465725F436F6E74726F6C6C65722E73726563B1
S11300000C942E000C9440000C9440000C9440007E
S11300100C9440000C9440000C9440000C9440005C
S11300200C9440000C9440000C9440000C9440004C
S11300300C9440000C94F4000C9440000C94400088
S11300400C9440000C9440000C9440000C9440002C
S11300500C9440000C9440000C94400011241FBEEA
S1130060CFEFD4E0DEBFCDBF21E0A0E0B1E001C01E
S11300701D92A130B207E1F70E94E1000C94BB018C
S11300800C94000085B18F7E85B985B1806185B9F6
S113009008959EB19F779EB99EB190649EB982B92E
S11300A00E94420008959EB190689EB982B968B9D1
S11300B00E944200089584B1806484B984B180624E
S11300C084B984B1806184B98DB180648DB98DB1F6
S11300D080688DB985B1806485B985B1806285B940
S11300E085B1806185B98EB180648EB98EB1806826
S11300F08EB98FEF81B987B987E090E00E944900FB
S113010060E081E20E94530080E090E00E94490098
S113011060E081E00E94530087E090E00E94490083
S113012060E083E30E94530081E190E00E94490073
S113013068E680E30E94530082E090E00E94490058
S113014060E080E00E94530008958FEF81B987B981
S1130150089511B817B80895CF93DF930E94A900AA
S11301608EB18F7B8EB986B180B1C6B1D0E0DC2F61
S1130170CC2780B1C82B8EB180648EB90E94A500B3
S1130180CE01DF91CF910895CF9384B18F7B84B951
S11301908EB18F778EB90E94AC00C92F0E943B01AB
S11301A00E944B018C2F0E943B010E944B018DE069
S11301B00E944B0184B1806484B980E090E0CF91C7
S11301C008950E943D010E945B000E948D01789475
S11301D02FEF8FE796E1215080409040E1F700C077
S11301E000000E94C400F4CF1F920F920FB60F922A
S11301F011242F933F934F935F936F937F938F9328
S11302009F93AF93BF93CF93EF93FF93C091C60097
S1130210CC2361F0CD3231F480910001809580933C
S1130220000104C0C33511F40E945F0180910001F4
S1130230882379F0C03240F4C73031F0CD3021F05A
S1130240CA3011F0C83029F48091C00085FDC093F4
S1130250C600FF91EF91CF91BF91AF919F918F9184
S11302607F916F915F914F913F912F910F900FBEAE
S11302700F901F901895805D08958FE28093C400BD
S11302801092C5001092C00088E98093C10086E0F6
S11302908093C200089520E030E09091C00095FF63
S11302A005C08093C60081E090E008952F5F3F4F22
S11302B0293E93E039078CF380E090E008958DE0C7
S11302C00E944B0183E50E944B0189E70E944B0188
S11302D083E70E944B0184E70E944B0185E60E945C
S11302E04B018DE60E944B0180E20E944B0183E6A4
S11302F00E944B0188E60E944B0185E60E944B0157
S113030083E60E944B018BE60E944B018AE30E9424
S11303104B018DE00E944B0108958DE00E944B013A
S113032082E40E944B018CE60E944B0189E60E9404
S11303304B0184E70E944B0184E70E944B0185E650
S11303400E944B0182E70E944B0180E20E944B0114
S113035082E70E944B0185E60E944B0181E60E94E0
S11303604B0184E60E944B0189E70E944B018DE01A
S10D03700E944B010895F894FFCF9A
S9030000FC
