:100000000C942E000C9440000C9440000C94400082
:100010000C9440000C9440000C9440000C94400060
:100020000C9440000C9440000C9440000C94400050
:100030000C9440000C9407030C9440000C94400076
:100040000C9440000C9440000C9440000C94400030
:100050000C9440000C9440000C94400011241FBEEE
:10006000CFEFD4E0DEBFCDBF21E0A0E0B1E001C022
:100070001D92A330B207E1F70E94CA020C946A04F1
:100080000C94000085B18F7E85B985B1806185B9FA
:1000900008959EB19F779EB99EB190649EB982B932
:1000A0000E94420008952EB120682EB9809301016C
:1000B0009093020182B98091020188B90E944200A6
:1000C0000895CF93DF93EB0125B12F7B25B90E94D3
:1000D0004900CE010E94530085B1806485B9DF914B
:1000E000CF9108958FEF81B987B9089511B817B8E6
:1000F0002FEF8FE392E0215080409040E1F700C065
:1001000000000895CF92DF92EF92FF92CF93DF939A
:10011000EC0185B18F7B85B982E290E00E944900B5
:10012000C12CD12C760108C0CE010E9453008FEF64
:10013000C81AD80AE80AF80AC1148CE2D80681E085
:10014000E806F10488F385B1806485B9DF91CF9129
:10015000FF90EF90DF90CF900895CF93DF9385B11C
:100160008F7B85B982E290E00E944900C0E0D0E038
:1001700005C08FEF9FEF0E9453002196C1158EE1BD
:10018000D807BCF3C0E0D0E005C080E090E00E945A
:1001900053002196C1158EE1D807BCF3C0E0D0E032
:1001A00005C08EED97EF0E9453002196C1158EE198
:1001B000D807BCF3C0E0D0E005C080E098EF0E9413
:1001C00053002196C1158EE1D807BCF3C0E0D0E002
:1001D00005C087EE9CEF0E9453002196C1158EE169
:1001E000D807BCF3C0E0D0E005C08FE190E00E94EA
:1001F00053002196C1158EE1D807BCF3C0E0D0E0D2
:1002000005C08FE198EF0E9453002196C1158EE141
:10021000D807BCF3C0E0D0E005C080EE97E00E94B4
:1002200053002196C1158EE1D807BCF3C0E0D0E0A1
:1002300005C080EE9FEF0E9453002196C1158EE10C
:10024000D807BCF3C0E0D0E005C08FE195E00E9484
:1002500053002196C1158EE1D807BCF385B18064A7
:1002600085B9DF91CF9108952FEF8FE392E0215070
:1002700080409040E1F700C0000085B1816085B901
:100280008FEF93E20197F1F700C0000085B18E7FF8
:1002900085B98FEF9BE60197F1F700C0000085B1AB
:1002A000816085B98FEF9BE60197F1F700C00000F0
:1002B00061E270E087E090E00E94610061E070E040
:1002C00080E090E00E94610063E270E087E090E0EF
:1002D0000E94610060E070E080E190E00E946100B7
:1002E0008FEF97ED0197F1F700C0000063E370E036
:1002F00087E090E00E94610060E378E681E190E0B1
:100300000E94610060E070E082E090E00E94610085
:100310000E94AD00089585B18F7B85B98FEF9FEF67
:100320000E94820080E090E00E9482008EED97EFB4
:100330000E9482008FE190E00E9482008FE195E0B0
:100340000E94820080E098EF0E9482008FE198EF87
:100350000E94820080EE97E00E94820080EE9FEF74
:100360000E9482008FEF9FE70E94820087EE9CEF41
:100370000E9482000E94AD0085B1806485B9089515
:10038000CF93DF930E9476008EB18F7B8EB986B1BA
:1003900080B1C6B1D0E0DC2FCC2780B1C82B8EB1A4
:1003A00080648EB90E947200CE01DF91CF910895D2
:1003B0001F93CF93DF9385B18F7B85B98EB18F77F4
:1003C0008EB90E94C001C82FD92F8DE00E94F6037C
:1003D00083E50E94F60383E40E94F60382E50E940F
:1003E000F60385E40E94F60385E40E94F6038EE49A
:1003F0000E94F60380E20E94F60383E50E94F60362
:1004000084E50E94F60381E40E94F60384E50E94DD
:10041000F60385E50E94F60383E50E94F6038AE36E
:100420000E94F60380E20E94F60380E30E94F60336
:1004300088E70E94F6031D2F1F708D2F82958F7005
:100440000E9470030E94F603812F0E9470030E9495
:10045000F603DC2FDF708C2F82958F700E94700363
:100460000E94F6038D2F0E9470030E94F6038DE018
:100470000E94F60385B1806485B9DF91CF911F9109
:100480000895809301019093020182B98091020145
:1004900088B90895CF92DF92EF92FF920E949F0356
:1004A00060E070E0CB010E94A60385B1806885B949
:1004B00085B1816085B98EB188608EB985B18F7B39
:1004C00085B982E290E00E9449008EB180688EB9C1
:1004D0000E947600C12CD12C760109C00E9498039D
:1004E0000E9442008FEFC81AD80AE80AF80AC1141D
:1004F0008CE2D80681E0E806F10480F385B18064DF
:1005000085B985B18F7785B90E949F030E947200DB
:10051000FF90EF90DF90CF900895CF92DF92EF920F
:10052000FF920E949F0360E070E0CB010E94A6034F
:1005300085B1806885B985B18F7B85B982E290E00D
:100540000E9449008EB180688EB9C12CD12C7601F1
:100550000DC08FE198EF0E9441020E948D030E941E
:1005600042008FEFC81AD80AE80AF80AC1148CE2D0
:10057000D80681E0E806F10460F385B1806485B9AE
:1005800085B18F7785B90E949F03FF90EF90DF9030
:10059000CF90089584B1816084B984B1806484B9B6
:1005A00084B1806284B984B1806184B984B1806887
:1005B00084B98DB180618DB98DB180628DB98DB1F5
:1005C00080648DB98DB180688DB98DB188608DB929
:1005D00085B18F7785B985B1806485B985B1806132
:1005E00085B98EB180648EB98EB180688EB98EB1B6
:1005F00088608EB98FEF81B987B90E94DC030E94B1
:10060000340178940E940C040E943F04FFCF1F9293
:100610000F920FB60F9211242F933F934F935F9336
:100620006F937F938F939F93AF93BF93CF93EF93EA
:10063000FF93C091C600CC2381F1CD3231F480917B
:10064000000180958093000128C0C33719F40E94EF
:100650000C0423C0CC3619F40E94D8011EC0C23647
:1006600029F480E098EF0E94820017C0C73719F480
:100670000E948D0212C0C23719F40E944A020DC0B6
:10068000C43519F40E948B0108C0CF3631F460EAFA
:1006900076E881E090E00E94A60380910001882323
:1006A00069F0C03240F4C73031F0CD3021F0CA30AB
:1006B00011F0C83019F48C2F0E94F603FF91EF91CE
:1006C000CF91BF91AF919F918F917F916F915F91EA
:1006D0004F913F912F910F900FBE0F901F90189543
:1006E000805D8A33C8F08A3361F08B3361F08C33DC
:1006F00061F08D3361F08E3361F08F3361F486E405
:10070000089581E4089582E4089583E4089584E4DB
:10071000089585E4089580E008958EB18F7D8EB9A7
:1007200082E08A95F1F700C08EB180628EB908959B
:100730008EB18F7E8EB98EB180618EB908958EB1E3
:1007400080618EB98EB180628EB90895CF92DF92AA
:10075000EF92FF926B017C0185B1806485B90E94A4
:100760009F030E9472002E2D2F70BB27AF2D9E2D50
:100770008D2DC2B888B99EB1907F9EB98EB1822B63
:100780008EB98FEF97E40197F1F700C0000085B1B3
:10079000816085B98EB1877F8EB98FEF97E401971D
:1007A000F1F700C000000E9442000E949F03FF90EA
:1007B000EF90DF90CF9008958FE28093C400109265
:1007C000C5001092C00088E98093C10086E0809344
:1007D000C2000895803248F4873039F08D3029F016
:1007E0008A3019F0883009F080E4089520E030E084
:1007F0009091C00095FF07C00E94EA038093C60055
:1008000081E090E008952F5F3F4F293E93E0390744
:100810007CF380E090E008958DE00E94F6038DE285
:100820000E94F6038DE00E94F60383E50E94F60322
:1008300089E70E94F60383E70E94F60384E70E949B
:10084000F60385E60E94F6038DE60E94F60380E239
:100850000E94F60383E60E94F60388E60E94F603F0
:1008600085E60E94F60383E60E94F6038BE60E946B
:10087000F6038AE30E94F6030E94D801089582E4F9
:100880000E94F6038CE60E94F60389E60E94F603B6
:1008900084E70E94F60384E70E94F60385E60E943F
:1008A000F60382E70E94F60380E20E94F60382E7E5
:1008B0000E94F60385E60E94F60381E60E94F60395
:1008C00084E60E94F60389E70E94F6038DE00E9409
:0808D000F6030895F894FFCF30
:00000001FF
