:100000000C942E000C9440000C9440000C94400082
:100010000C9440000C9440000C9440000C94400060
:100020000C9440000C9440000C9440000C94400050
:100030000C9440000C94F5000C9440000C9440008B
:100040000C9440000C9440000C9440000C94400030
:100050000C9440000C9440000C94400011241FBEEE
:10006000CFEFD4E0DEBFCDBF21E0A0E0B1E001C022
:100070001D92A130B207E1F70E94ED000C94BA0185
:100080000C94000085B18F7E85B985B1806185B9FA
:1000900008959EB19F779EB99EB190649EB982B932
:1000A0000E94420008959EB190689EB982B968B9D5
:1000B0000E9442000895CF93DF93C62FD42F25B11D
:1000C0002F7B25B90E9449006D2F8C2F0E94530071
:1000D00085B1806485B9DF91CF91089584B1806442
:1000E00084B984B1806284B984B1806184B98DB1EE
:1000F00080648DB98DB180688DB985B1806485B912
:1001000085B1806185B98EB180648EB98EB1806809
:100110008EB98FEF81B987B92FEF8FE392E021502D
:1001200080409040E1F700C0000085B1816085B952
:100130008FEF93E20197F1F700C0000085B18E7F49
:1001400085B98FEF9BE60197F1F700C0000085B1FC
:10015000816085B98FEF9BE60197F1F700C0000041
:1001600040E061E287E090E00E945B0040E061E0F7
:1001700080E090E00E945B0040E063E287E090E076
:100180000E945B0040E060E080E190E00E945B0044
:100190009FEF2FE181E0915020408040E1F700C0C7
:1001A000000040E063E387E090E00E945B0048E6E7
:1001B00060E381E190E00E945B0040E060E082E06B
:1001C00090E00E945B0045E46EE882E290E00E94CD
:1001D0005B0083E50E944A01F6CF0E943C010E9429
:1001E0006E0078940E948C01FFCF1F920F920FB681
:1001F0000F9211242F933F934F935F936F937F93AD
:100200008F939F93AF93BF93CF93EF93FF93C0913F
:10021000C600CC2361F0CD3231F48091000180958D
:100220008093000104C0C33511F40E945E018091E7
:100230000001882379F0C03240F4C73031F0CD306E
:1002400021F0CA3011F0C83029F48091C00085FD3A
:10025000C093C600FF91EF91CF91BF91AF919F9155
:100260008F917F916F915F914F913F912F910F905F
:100270000FBE0F901F9018958FE28093C4001092CC
:10028000C5001092C00088E98093C10086E0809389
:10029000C200089520E030E09091C00095FF05C0B5
:1002A0008093C60081E090E008952F5F3F4F293E84
:1002B00093E039078CF380E090E008958DE00E9490
:1002C0004A0183E50E944A0189E70E944A0183E7C7
:1002D0000E944A0184E70E944A0185E60E944A0181
:1002E0008DE60E944A0180E20E944A0183E60E9454
:1002F0004A0188E60E944A0185E60E944A0183E697
:100300000E944A018BE60E944A018AE30E944A0148
:100310008DE00E944A0108958DE00E944A0182E426
:100320000E944A018CE60E944A0189E60E944A0125
:1003300084E70E944A0184E70E944A0185E60E9400
:100340004A0182E70E944A0180E20E944A0182E754
:100350000E944A0185E60E944A0181E60E944A0104
:1003600084E60E944A0189E70E944A018DE00E94CA
:080370004A010895F894FFCF43
:00000001FF
