:100000000C942E000C9440000C9440000C94400082
:100010000C9440000C9440000C9440000C94400060
:100020000C9440000C9440000C9440000C94400050
:100030000C9440000C9476030C9440000C94400007
:100040000C9440000C9440000C9440000C94400030
:100050000C9440000C9440000C94400011241FBEEE
:10006000CFEFD4E0DEBFCDBF21E0A0E0B1E001C022
:100070001D92A330B207E1F70E9416030C943705D6
:100080000C94000085B18F7E85B985B1806185B9FA
:1000900008959EB19F779EB99EB190649EB982B932
:1000A0000E94420008952EB120682EB9809301016C
:1000B0009093020182B98091020188B90E944200A6
:1000C0000895CF93DF93EB0125B12F7B25B90E94D3
:1000D0004900CE010E94530085B1806485B9DF914B
:1000E000CF9108958FEF81B987B9089511B817B8E6
:1000F0002FEF8FE392E0215080409040E1F700C065
:1001000000000895CF92DF92EF92FF92CF93DF939A
:10011000EC0185B18F7B85B982E290E00E944900B5
:10012000C12CD12C760108C0CE010E9453008FEF64
:10013000C81AD80AE80AF80AC1148CE2D80681E085
:10014000E806F10488F385B1806485B9DF91CF9129
:10015000FF90EF90DF90CF900895CF93DF9385B11C
:100160008F7B85B982E290E00E944900C0E0D0E038
:1001700005C08FEF9FEF0E9453002196C1158EE1BD
:10018000D807BCF3C0E0D0E005C080E090E00E945A
:1001900053002196C1158EE1D807BCF3C0E0D0E032
:1001A00005C08EED97EF0E9453002196C1158EE198
:1001B000D807BCF3C0E0D0E005C080E098EF0E9413
:1001C00053002196C1158EE1D807BCF3C0E0D0E002
:1001D00005C087EE9CEF0E9453002196C1158EE169
:1001E000D807BCF3C0E0D0E005C08FE190E00E94EA
:1001F00053002196C1158EE1D807BCF3C0E0D0E0D2
:1002000005C08FE198EF0E9453002196C1158EE141
:10021000D807BCF3C0E0D0E005C080EE97E00E94B4
:1002200053002196C1158EE1D807BCF3C0E0D0E0A1
:1002300005C080EE9FEF0E9453002196C1158EE10C
:10024000D807BCF3C0E0D0E005C08FE195E00E9484
:1002500053002196C1158EE1D807BCF385B18064A7
:1002600085B9DF91CF9108952FEF8FE392E0215070
:1002700080409040E1F700C0000085B1816085B901
:100280008FEF93E20197F1F700C0000085B18E7FF8
:1002900085B98FEF9BE60197F1F700C0000085B1AB
:1002A000816085B98FEF9BE60197F1F700C00000F0
:1002B00061E270E087E090E00E94610061E070E040
:1002C00080E090E00E94610063E270E087E090E0EF
:1002D0000E94610060E070E080E190E00E946100B7
:1002E0008FEF97ED0197F1F700C0000063E370E036
:1002F00087E090E00E94610060E378E681E190E0B1
:100300000E94610060E070E082E090E00E94610085
:100310000E94AD00089585B18F7B85B98FEF9FEF67
:100320000E94820080E090E00E9482008EED97EFB4
:100330000E9482008FE190E00E9482008FE195E0B0
:100340000E94820080E098EF0E9482008FE198EF87
:100350000E94820080EE97E00E94820080EE9FEF74
:100360000E9482008FEF9FE70E94820087EE9CEF41
:100370000E9482000E94AD0085B1806485B9089515
:10038000CF93DF930E9476008EB18F7B8EB986B1BA
:1003900080B1C6B1D0E0DC2FCC2780B1C82B8EB1A4
:1003A00080648EB90E947200CE01DF91CF910895D2
:1003B0001F93CF93DF9385B18F7B85B98EB18F77F4
:1003C0008EB90E94C001C82FD92F8DE00E948904E8
:1003D00083E50E94890483E40E94890482E50E94E7
:1003E000890485E40E94890485E40E9489048EE4DE
:1003F0000E94890480E20E94890483E50E948904A6
:1004000084E50E94890481E40E94890484E50E94B5
:10041000890485E50E94890483E50E9489048AE3B2
:100420000E94890480E20E94890480E30E9489047A
:1004300088E70E9489041D2F1F708D2F82958F7071
:100440000E949F040E948904812F0E949F040E94A1
:100450008904DC2FDF708C2F82958F700E949F049F
:100460000E9489048D2F0E949F040E9489048DE0C0
:100470000E94890485B1806485B9DF91CF911F9175
:100480000895809301019093020182B98091020145
:1004900088B90895CF92DF92EF92FF926B017C01B1
:1004A0000E941504C701B6010E941C0485B1806832
:1004B00085B985B1816085B98EB188608EB985B105
:1004C0008F7B85B982E290E00E9449008EB18068FE
:1004D0008EB90E947600C12CD12C760109C00E94F1
:1004E0000E040E9442008FEFC81AD80AE80AF80AE0
:1004F000C1148CE2D80681E0E806F10480F385B1EE
:10050000806485B985B18F7785B90E9415040E94F2
:100510007200FF90EF90DF90CF9008954F925F921E
:100520006F927F92AF92BF92CF92DF92EF92FF9243
:100530000F931F93CF93DF937C015B01EA012801A6
:1005400039010E941504C301B2010E941C0485B147
:10055000806885B98EB188608EB985B1816085B9B2
:1005600085B18F7B85B98EB180618EB982E290E0D2
:100570000E9449008EB180688EB9412C512C320105
:100580000CC0C7010E9441020E9403040E94420065
:100590008FEF481A580A680A780A411484E6580608
:1005A0006104710470F3C12CD12C76010CC0C5011B
:1005B0000E9441020E9403040E9442008FEFC81A69
:1005C000D80AE80AF80AC11484E6D806E104F1045E
:1005D00070F3C12CD12C76010CC0CE010E944102D7
:1005E0000E9403040E9442008FEFC81AD80AE80A4A
:1005F000F80AC11484E6D806E104F10470F385B169
:10060000806485B985B18F7785B90E941504DF9123
:10061000CF911F910F91FF90EF90DF90CF90BF90FF
:10062000AF907F906F905F904F90089584B18160FC
:1006300084B984B1806484B984B1806284B984B19E
:10064000806184B984B1806884B98DB180618DB9CD
:100650008DB180628DB98DB180648DB98DB18068A6
:100660008DB98DB188608DB985B18F7785B985B128
:10067000806485B985B1806185B98EB180648EB999
:100680008EB180688EB98EB188608EB98FEF81B9D6
:1006900087B90E946F040E94340178940E94D904A3
:1006A0000E940C0500E010E0980147EE5CEF6FE15E
:1006B00075E08FE198EF0E948E0200E01CE221E0DD
:1006C00030E040E050E06FEF7FEF80E090E00E948C
:1006D0008E0200E018E522E030E04FE150E060E0FB
:1006E00078EF80EE9FEF0E948E02FFCF1F920F9255
:1006F0000FB60F9211240F931F932F933F934F9395
:100700005F936F937F938F939F93AF93BF93CF9399
:10071000EF93FF93C091C600CC2309F44FC0CD32B4
:1007200031F48091000180958093000147C0C33768
:1007300019F40E94D90442C0CC3619F40E94D801A1
:100740003DC0C23629F480E098EF0E94820036C096
:10075000C73769F400E01CE221E030E040EE57E0EA
:1007600060E078EF8FE190E00E948E0227C0C133F5
:1007700031F460E070E0CB010E944A021FC0C23336
:1007800039F460E07CE281E090E00E944A0216C009
:10079000C33339F460E078E582E090E00E944A02D9
:1007A0000DC0C43519F40E948B0108C0CF3631F456
:1007B00068EE73E080E090E00E941C0480910001EC
:1007C000882369F0C03240F4C73031F0CD3021F0D9
:1007D000CA3011F0C83019F48C2F0E948904FF919F
:1007E000EF91CF91BF91AF919F918F917F916F9139
:1007F0005F914F913F912F911F910F910F900FBEDD
:100800000F901F9018958EB18F7D8EB982E08A95DA
:10081000F1F700C08EB180628EB908958EB18F7EDF
:100820008EB98EB180618EB908958EB180618EB916
:100830008EB180628EB908958F929F92AF92BF92CF
:10084000CF92DF92EF92FF92CF936B017C0185B143
:10085000806485B90E9415040E947200CE2DCF706D
:100860008D2C9E2CAF2CBB248DE00E9489048C2FF4
:100870000E94BC04882D0E94BC048C2D0E94BC04E4
:100880008DE00E948904C2B888B88EB18F708EB98D
:100890002EB130E1C39FC0011124822B8EB98FEF9E
:1008A00097E40197F1F700C0000085B1816085B938
:1008B0008EB1877F8EB98FEF97E40197F1F700C073
:1008C00000000E9442000E941504CF91FF90EF901B
:1008D000DF90CF90BF90AF909F908F9008958FE260
:1008E0008093C4001092C5001092C00088E98093E4
:1008F000C10086E08093C2000895803248F48730BA
:1009000039F08D3029F08A3019F0883009F080E410
:10091000089520E030E09091C00095FF07C00E944C
:100920007D048093C60081E090E008952F5F3F4FE3
:10093000293E93E039077CF380E090E00895805DE4
:100940008A33C8F08A3361F08B3361F08C3361F005
:100950008D3361F08E3361F08F3361F486E4089556
:1009600081E4089582E4089583E4089584E4089579
:1009700085E4089580E00895CF93DF93C82F80E346
:100980000E94890488E70E948904DC2FDF708C2F85
:1009900082958F700E949F040E9489048D2F0E946F
:1009A0009F040E94890480E20E948904DF91CF9114
:1009B00008958DE00E9489048DE20E9489048DE0F3
:1009C0000E94890483E50E94890489E70E948904C2
:1009D00083E70E94890484E70E94890485E60E94D7
:1009E00089048DE60E94890480E20E94890483E6DE
:1009F0000E94890488E60E94890485E60E94890491
:100A000083E60E9489048BE60E9489048AE30E949F
:100A100089040E94D801089582E40E9489048CE62A
:100A20000E94890489E60E94890484E70E9489045F
:100A300084E70E94890485E60E94890482E70E9477
:100A4000890480E20E94890482E70E94890485E685
:100A50000E94890481E60E94890484E60E94890438
:100A600089E70E9489048DE00E9489040895F89422
:020A7000FFCFB6
:00000001FF
