:100000000C942E000C9440000C9440000C94400082
:100010000C9440000C9440000C9440000C94400060
:100020000C9440000C9440000C9440000C94400050
:100030000C9440000C944C020C9440000C94400032
:100040000C9440000C9440000C9440000C94400030
:100050000C9440000C9440000C94400011241FBEEE
:10006000CFEFD4E0DEBFCDBF21E0A0E0B1E001C022
:100070001D92A330B207E1F70E9444020C94510391
:100080000C94000085B18F7E85B985B1806185B9FA
:1000900008959EB19F779EB99EB190649EB982B932
:1000A0000E94420008952EB120682EB9809301016C
:1000B0009093020182B98091020188B90E944200A6
:1000C0000895CF93DF93EB0125B12F7B25B90E94D3
:1000D0004900CE010E94530085B1806485B9DF914B
:1000E000CF9108958FEF81B987B9089511B817B8E6
:1000F0002FEF8FE392E0215080409040E1F700C065
:1001000000000895CF92DF92EF92FF92CF93DF939A
:10011000EC0185B18F7B85B982E290E00E944900B5
:10012000C12CD12C760108C0CE010E9453008FEF64
:10013000C81AD80AE80AF80AC1148CE2D80681E085
:10014000E806F10488F385B1806485B9DF91CF9129
:10015000FF90EF90DF90CF900895CF93DF9385B11C
:100160008F7B85B982E290E00E944900C0E0D0E038
:1001700005C08FEF9FEF0E9453002196C1158EE1BD
:10018000D807BCF3C0E0D0E005C080E090E00E945A
:1001900053002196C1158EE1D807BCF3C0E0D0E032
:1001A00005C08EED97EF0E9453002196C1158EE198
:1001B000D807BCF3C0E0D0E005C080E098EF0E9413
:1001C00053002196C1158EE1D807BCF3C0E0D0E002
:1001D00005C087EE9CEF0E9453002196C1158EE169
:1001E000D807BCF3C0E0D0E005C08FE190E00E94EA
:1001F00053002196C1158EE1D807BCF3C0E0D0E0D2
:1002000005C08FE198EF0E9453002196C1158EE141
:10021000D807BCF3C0E0D0E005C080EE97E00E94B4
:1002200053002196C1158EE1D807BCF3C0E0D0E0A1
:1002300005C080EE9FEF0E9453002196C1158EE10C
:10024000D807BCF3C0E0D0E005C08FE195E00E9484
:1002500053002196C1158EE1D807BCF385B18064A7
:1002600085B9DF91CF91089584B1806484B984B158
:10027000806284B984B1806184B98DB180648DB9A4
:100280008DB180688DB985B1806485B985B1806193
:1002900085B98EB180648EB98EB180688EB98FEFCA
:1002A00081B987B92FEF8FE392E0215080409040D1
:1002B000E1F700C0000085B1816085B98FEF93E25E
:1002C0000197F1F700C0000085B18E7F85B98FEFEF
:1002D0009BE60197F1F700C0000085B1816085B908
:1002E0008FEF9BE60197F1F700C0000061E270E03C
:1002F00087E090E00E94610061E070E080E090E0C3
:100300000E94610063E270E087E090E00E9461007B
:1003100060E070E080E190E00E9461008FEF97ED77
:100320000197F1F700C0000063E370E087E090E020
:100330000E94610060E378E681E190E00E94610044
:1003400060E070E082E090E00E9461000E94AD00F9
:10035000089585B18F7B85B98FEF9FEF0E94820052
:1003600080E090E00E9482008EED97EF0E94820074
:100370008FE190E00E9482008FE195E00E94820070
:1003800080E098EF0E9482008FE198EF0E94820047
:1003900080EE97E00E94820080EE9FEF0E94820034
:1003A0008FEF9FE70E94820087EE9CEF0E94820001
:1003B0000E94AD0085B1806485B90895CF93DF9325
:1003C0000E9476008EB18F7B8EB986B180B1C6B1A6
:1003D000D0E0DC2FCC2780B1C82B8EB180648EB9E1
:1003E0000E947200CE01DF91CF9108951F93CF93A9
:1003F000DF9385B18F7B85B98EB18F778EB90E94DF
:10040000DE01C82FD92F8DE00E94DF0284E40E9414
:10041000DF0281E40E94DF0284E50E94DF0281E4C2
:100420000E94DF028AE30E94DF0280E20E94DF0274
:1004300080E30E94DF0288E70E94DF021D2F1F7009
:100440008D2F82958F700E94A9020E94DF02812F5A
:100450000E94A9020E94DF02DC2FDF708C2F8295A0
:100460008F700E94A9020E94DF028D2F0E94A902B4
:100470000E94DF028DE00E94DF0285B1806485B9B1
:10048000DF91CF911F9108950E94C5020E9434010F
:1004900078940E942303FFCF1F920F920FB60F9202
:1004A00011242F933F934F935F936F937F938F9379
:1004B0009F93AF93BF93CF93EF93FF93C091C600E9
:1004C000CC2321F1CD3231F48091000180958093CD
:1004D00000011CC0C33719F40E94F50217C0CC36C6
:1004E00019F40E94F60112C0C23629F480E098EF98
:1004F0000E9482000BC0C23729F48FE190E00E9475
:10050000820004C0C43511F40E94A9018091000149
:10051000882369F0C03240F4C73031F0CD3021F08B
:10052000CA3011F0C83019F48C2F0E94DF02FF91FD
:10053000EF91CF91BF91AF919F918F917F916F91EB
:100540005F914F913F912F910F900FBE0F901F9091
:100550001895805D8A33C0F08A3359F08B3359F097
:100560008C3359F08D3359F08E3359F08F3359F065
:10057000089581E4089582E4089583E4089584E46D
:10058000089585E4089586E408958FE28093C40079
:100590001092C5001092C00088E98093C10086E0E7
:1005A0008093C2000895803248F4873039F08D304E
:1005B00029F08A3019F0883009F080E4089520E0AD
:1005C00030E09091C00095FF07C00E94D302809355
:1005D000C60081E090E008952F5F3F4F293E93E0F1
:1005E00039077CF380E090E008958DE00E94DF02FF
:1005F00083E50E94DF0289E70E94DF0283E70E9411
:10060000DF0284E70E94DF0285E60E94DF028DE6BA
:100610000E94DF0280E20E94DF0283E60E94DF0286
:1006200088E60E94DF0285E60E94DF0283E60E94E0
:10063000DF028BE60E94DF028AE30E94DF028DE088
:100640000E94DF0208958DE00E94DF0282E40E9492
:10065000DF028CE60E94DF0289E60E94DF0284E767
:100660000E94DF0284E70E94DF0285E60E94DF022B
:1006700082E70E94DF0280E20E94DF0282E70E949E
:10068000DF0285E60E94DF0281E60E94DF0284E647
:100690000E94DF0289E70E94DF028DE00E94DF02F4
:0606A0000895F894FFCF5D
:00000001FF
