:100000000C942E000C9440000C9440000C94400082
:100010000C9440000C9440000C9440000C94400060
:100020000C9440000C9440000C9440000C94400050
:100030000C9440000C94FF020C9440000C9440007F
:100040000C9440000C9440000C9440000C94400030
:100050000C9440000C9440000C94400011241FBEEE
:10006000CFEFD4E0DEBFCDBF21E0A0E0B1E001C022
:100070001D92A330B207E1F70E94C2020C946604FD
:100080000C94000085B18F7E85B985B1806185B9FA
:1000900008959EB19F779EB99EB190649EB982B932
:1000A0000E94420008952EB120682EB9809301016C
:1000B0009093020182B98091020188B90E944200A6
:1000C0000895CF93DF93EB0125B12F7B25B90E94D3
:1000D0004900CE010E94530085B1806485B9DF914B
:1000E000CF9108958FEF81B987B9089511B817B8E6
:1000F0002FEF8FE392E0215080409040E1F700C065
:1001000000000895CF92DF92EF92FF92CF93DF939A
:10011000EC0185B18F7B85B982E290E00E944900B5
:10012000C12CD12C760108C0CE010E9453008FEF64
:10013000C81AD80AE80AF80AC1148CE2D80681E085
:10014000E806F10488F385B1806485B9DF91CF9129
:10015000FF90EF90DF90CF900895CF93DF9385B11C
:100160008F7B85B982E290E00E944900C0E0D0E038
:1001700005C08FEF9FEF0E9453002196C1158EE1BD
:10018000D807BCF3C0E0D0E005C080E090E00E945A
:1001900053002196C1158EE1D807BCF3C0E0D0E032
:1001A00005C08EED97EF0E9453002196C1158EE198
:1001B000D807BCF3C0E0D0E005C080E098EF0E9413
:1001C00053002196C1158EE1D807BCF3C0E0D0E002
:1001D00005C087EE9CEF0E9453002196C1158EE169
:1001E000D807BCF3C0E0D0E005C08FE190E00E94EA
:1001F00053002196C1158EE1D807BCF3C0E0D0E0D2
:1002000005C08FE198EF0E9453002196C1158EE141
:10021000D807BCF3C0E0D0E005C080EE97E00E94B4
:1002200053002196C1158EE1D807BCF3C0E0D0E0A1
:1002300005C080EE9FEF0E9453002196C1158EE10C
:10024000D807BCF3C0E0D0E005C08FE195E00E9484
:1002500053002196C1158EE1D807BCF385B18064A7
:1002600085B9DF91CF9108952FEF8FE392E0215070
:1002700080409040E1F700C0000085B1816085B901
:100280008FEF93E20197F1F700C0000085B18E7FF8
:1002900085B98FEF9BE60197F1F700C0000085B1AB
:1002A000816085B98FEF9BE60197F1F700C00000F0
:1002B00061E270E087E090E00E94610061E070E040
:1002C00080E090E00E94610063E270E087E090E0EF
:1002D0000E94610060E070E080E190E00E946100B7
:1002E0008FEF97ED0197F1F700C0000063E370E036
:1002F00087E090E00E94610060E378E681E190E0B1
:100300000E94610060E070E082E090E00E94610085
:100310000E94AD00089585B18F7B85B98FEF9FEF67
:100320000E94820080E090E00E9482008EED97EFB4
:100330000E9482008FE190E00E9482008FE195E0B0
:100340000E94820080E098EF0E9482008FE198EF87
:100350000E94820080EE97E00E94820080EE9FEF74
:100360000E9482008FEF9FE70E94820087EE9CEF41
:100370000E9482000E94AD0085B1806485B9089515
:10038000CF93DF930E9476008EB18F7B8EB986B1BA
:1003900080B1C6B1D0E0DC2FCC2780B1C82B8EB1A4
:1003A00080648EB90E947200CE01DF91CF910895D2
:1003B0001F93CF93DF9385B18F7B85B98EB18F77F4
:1003C0008EB90E94C001C82FD92F8DE00E94F20380
:1003D00083E50E94F20383E40E94F20382E50E9417
:1003E000F20385E40E94F20385E40E94F2038EE4A6
:1003F0000E94F20380E20E94F20383E50E94F2036E
:1004000084E50E94F20381E40E94F20384E50E94E5
:10041000F20385E50E94F20383E50E94F2038AE37A
:100420000E94F20380E20E94F20380E30E94F20342
:1004300088E70E94F2031D2F1F708D2F82958F7009
:100440000E9468030E94F203812F0E9468030E94A9
:10045000F203DC2FDF708C2F82958F700E9468036F
:100460000E94F2038D2F0E9468030E94F2038DE028
:100470000E94F20385B1806485B9DF91CF911F910D
:100480000895809301019093020182B98091020145
:1004900088B90895CF92DF92EF92FF920E949B035A
:1004A00060E070E0CB010E94A20385B1806885B94D
:1004B00085B18F7B85B98EB180688EB982E290E07C
:1004C0000E9449000E947600C12CD12C760109C0FF
:1004D0000E9490030E9442008FEFC81AD80AE80ACF
:1004E000F80AC1148CE2D80681E0E806F10480F332
:1004F00085B1806485B985B18F7785B90E949B03EA
:10050000FF90EF90DF90CF900895CF92DF92EF921F
:10051000FF920E949B0360E070E0CB010E94A20367
:1005200085B1806885B985B18F7B85B982E290E01D
:100530000E9449008EB180688EB9C12CD12C760101
:100540000DC08FE198EF0E9441020E9485030E9436
:1005500042008FEFC81AD80AE80AF80AC1148CE2E0
:10056000D80681E0E806F10460F385B1806485B9BE
:1005700085B18F7785B90E949B03FF90EF90DF9044
:10058000CF90089584B1816084B984B1806484B9C6
:1005900084B1806284B984B1806184B984B1806897
:1005A00084B98DB180618DB98DB180628DB98DB105
:1005B00080648DB98DB180688DB98DB188608DB939
:1005C00085B18F7785B985B1806485B985B1806142
:1005D00085B98EB180648EB98EB180688EB98EB1C6
:1005E00088608EB98FEF81B987B90E94D8030E94C5
:1005F000340178940E9408040E943B04FFCF1F92AC
:100600000F920FB60F9211242F933F934F935F9346
:100610006F937F938F939F93AF93BF93CF93EF93FA
:10062000FF93C091C600CC2381F1CD3231F480918B
:10063000000180958093000128C0C33719F40E94FF
:10064000080423C0CC3619F40E94D8011EC0C2365B
:1006500029F480E098EF0E94820017C0C73719F490
:100660000E94850212C0C23719F40E944A020DC0CE
:10067000C43519F40E948B0108C0CF3631F460EA0A
:1006800076E881E090E00E94A20380910001882337
:1006900069F0C03240F4C73031F0CD3021F0CA30BB
:1006A00011F0C83019F48C2F0E94F203FF91EF91E2
:1006B000CF91BF91AF919F918F917F916F915F91FA
:1006C0004F913F912F910F900FBE0F901F90189553
:1006D000805D8A33C8F08A3361F08B3361F08C33EC
:1006E00061F08D3361F08E3361F08F3361F486E415
:1006F000089581E4089582E4089583E4089584E4EC
:10070000089585E4089580E008958EB18F7D8EB9B7
:1007100082E08A95F1F700C08EB180628EB90895AB
:100720008EB18F7E8EB982E08A95F1F700C08EB1CE
:1007300080618EB908958EB180618EB98EB180626C
:100740008EB90895CF92DF92EF92FF926B017C01F8
:1007500085B1806485B90E949B030E9472002E2D92
:100760002F70BB27AF2D9E2D8D2DC2B888B99EB19D
:10077000907F9EB98EB1822B8EB98FEF97E401974F
:10078000F1F700C0000085B1816085B98EB1877F27
:100790008EB98FEF97E40197F1F700C000000E9437
:1007A00042000E949B03FF90EF90DF90CF9008954E
:1007B0008FE28093C4001092C5001092C00088E9B7
:1007C0008093C10086E08093C2000895803248F48F
:1007D000873039F08D3029F08A3019F0883009F0EF
:1007E00080E4089520E030E09091C00095FF07C0BC
:1007F0000E94E6038093C60081E090E008952F5F99
:100800003F4F293E93E039077CF380E090E0089564
:100810008DE00E94F2038DE20E94F2038DE00E94BF
:10082000F20383E50E94F20389E70E94F20383E763
:100830000E94F20384E70E94F20385E60E94F2031D
:100840008DE60E94F20380E20E94F20383E60E949A
:10085000F20388E60E94F20385E60E94F20383E633
:100860000E94F2038BE60E94F2038AE30E94F203E5
:100870000E94D801089582E40E94F2038CE60E944F
:10088000F20389E60E94F20384E70E94F20384E700
:100890000E94F20385E60E94F20382E70E94F203BF
:1008A00080E20E94F20382E70E94F20385E60E9442
:1008B000F20381E60E94F20384E60E94F20389E7D4
:1008C0000E94F2038DE00E94F2030895F894FFCF96
:00000001FF
