:100000000C942E000C9440000C9440000C94400082
:100010000C9440000C9440000C9440000C94400060
:100020000C9440000C9440000C9440000C94400050
:100030000C9440000C9437030C9440000C94400046
:100040000C9440000C9440000C9440000C94400030
:100050000C9440000C9440000C94400011241FBEEE
:10006000CFEFD4E0DEBFCDBF21E0A0E0B1E001C022
:100070001D92A330B207E1F70E94FA020C94CD045E
:100080000C94000085B18F7E85B985B1806185B9FA
:1000900008959EB19F779EB99EB190649EB982B932
:1000A0000E94420008952EB120682EB9809301016C
:1000B0009093020182B98091020188B90E944200A6
:1000C0000895CF93DF93EB0125B12F7B25B90E94D3
:1000D0004900CE010E94530085B1806485B9DF914B
:1000E000CF9108958FEF81B987B9089511B817B8E6
:1000F0002FEF8FE392E0215080409040E1F700C065
:1001000000000895CF92DF92EF92FF92CF93DF939A
:10011000EC0185B18F7B85B982E290E00E944900B5
:10012000C12CD12C760108C0CE010E9453008FEF64
:10013000C81AD80AE80AF80AC1148CE2D80681E085
:10014000E806F10488F385B1806485B9DF91CF9129
:10015000FF90EF90DF90CF900895CF93DF9385B11C
:100160008F7B85B982E290E00E944900C0E0D0E038
:1001700005C08FEF9FEF0E9453002196C1158EE1BD
:10018000D807BCF3C0E0D0E005C080E090E00E945A
:1001900053002196C1158EE1D807BCF3C0E0D0E032
:1001A00005C08EED97EF0E9453002196C1158EE198
:1001B000D807BCF3C0E0D0E005C080E098EF0E9413
:1001C00053002196C1158EE1D807BCF3C0E0D0E002
:1001D00005C087EE9CEF0E9453002196C1158EE169
:1001E000D807BCF3C0E0D0E005C08FE190E00E94EA
:1001F00053002196C1158EE1D807BCF3C0E0D0E0D2
:1002000005C08FE198EF0E9453002196C1158EE141
:10021000D807BCF3C0E0D0E005C080EE97E00E94B4
:1002200053002196C1158EE1D807BCF3C0E0D0E0A1
:1002300005C080EE9FEF0E9453002196C1158EE10C
:10024000D807BCF3C0E0D0E005C08FE195E00E9484
:1002500053002196C1158EE1D807BCF385B18064A7
:1002600085B9DF91CF9108952FEF8FE392E0215070
:1002700080409040E1F700C0000085B1816085B901
:100280008FEF93E20197F1F700C0000085B18E7FF8
:1002900085B98FEF9BE60197F1F700C0000085B1AB
:1002A000816085B98FEF9BE60197F1F700C00000F0
:1002B00061E270E087E090E00E94610061E070E040
:1002C00080E090E00E94610063E270E087E090E0EF
:1002D0000E94610060E070E080E190E00E946100B7
:1002E0008FEF97ED0197F1F700C0000063E370E036
:1002F00087E090E00E94610060E378E681E190E0B1
:100300000E94610060E070E082E090E00E94610085
:100310000E94AD00089585B18F7B85B98FEF9FEF67
:100320000E94820080E090E00E9482008EED97EFB4
:100330000E9482008FE190E00E9482008FE195E0B0
:100340000E94820080E098EF0E9482008FE198EF87
:100350000E94820080EE97E00E94820080EE9FEF74
:100360000E9482008FEF9FE70E94820087EE9CEF41
:100370000E9482000E94AD0085B1806485B9089515
:10038000CF93DF930E9476008EB18F7B8EB986B1BA
:1003900080B1C6B1D0E0DC2FCC2780B1C82B8EB1A4
:1003A00080648EB90E947200CE01DF91CF910895D2
:1003B0001F93CF93DF9385B18F7B85B98EB18F77F4
:1003C0008EB90E94C001C82FD92F8DE00E941F0452
:1003D00083E50E941F0483E40E941F0482E50E94BB
:1003E0001F0485E40E941F0485E40E941F048EE41C
:1003F0000E941F0480E20E941F0483E50E941F04E4
:1004000084E50E941F0481E40E941F0484E50E9489
:100410001F0485E50E941F0483E50E941F048AE3F0
:100420000E941F0480E20E941F0480E30E941F04B8
:1004300088E70E941F041D2F1F708D2F82958F70DB
:100440000E9435040E941F04812F0E9435040E94DF
:100450001F04DC2FDF708C2F82958F700E94350473
:100460000E941F048D2F0E9435040E941F048DE0FE
:100470000E941F0485B1806485B9DF91CF911F91DF
:100480000895809301019093020182B98091020145
:1004900088B90895CF92DF92EF92FF920E94B20343
:1004A00060E070E0CB010E94B90385B1806885B936
:1004B00085B1816085B98EB188608EB985B18F7B39
:1004C00085B982E290E00E9449008EB180688EB9C1
:1004D0000E947600C12CD12C760109C00E94AB038A
:1004E0000E9442008FEFC81AD80AE80AF80AC1141D
:1004F0008CE2D80681E0E806F10480F385B18064DF
:1005000085B985B18F7785B90E94B2030E947200C8
:10051000FF90EF90DF90CF900895CF92DF92EF920F
:10052000FF920E94B20360E070E0CB010E94B90329
:1005300085B1806885B985B18F7B85B98EB18061C1
:100540008EB982E290E00E9449008EB180688EB937
:10055000C12CD12C76010DC08FE190E00E944102A8
:100560000E94A0030E9442008FEFC81AD80AE80A2E
:10057000F80AC11484E6D806E104F10468F3C12C3A
:10058000D12C76010DC08FE195E00E9441020E94BE
:10059000A0030E9442008FEFC81AD80AE80AF80A9E
:1005A000C11484E6D806E104F10468F3C12CD12C0F
:1005B00076010DC080E098EF0E9441020E94A003E6
:1005C0000E9442008FEFC81AD80AE80AF80AC1143C
:1005D00084E6D806E104F10468F385B1806485B946
:1005E00085B18F7785B90E94B203FF90EF90DF90BD
:1005F000CF90089584B1816084B984B1806484B956
:1006000084B1806284B984B1806184B984B1806826
:1006100084B98DB180618DB98DB180628DB98DB194
:1006200080648DB98DB180688DB98DB188608DB9C8
:1006300085B18F7785B985B1806485B985B18061D1
:1006400085B98EB180648EB98EB180688EB98EB155
:1006500088608EB98FEF81B987B90E9405040E9426
:10066000340178940E946F040E94A204FFCF1F926D
:100670000F920FB60F9211242F933F934F935F93D6
:100680006F937F938F939F93AF93BF93CF93EF938A
:10069000FF93C091C600CC2381F1CD3231F480911B
:1006A000000180958093000128C0C33719F40E948F
:1006B0006F0423C0CC3619F40E94D8011EC0C23684
:1006C00029F480E098EF0E94820017C0C73719F420
:1006D0000E948D0212C0C13319F40E944A020DC05B
:1006E000C43519F40E948B0108C0CF3631F468EE8E
:1006F00073E080E090E00E94B903809100018823BC
:1007000069F0C03240F4C73031F0CD3021F0CA304A
:1007100011F0C83019F48C2F0E941F04FF91EF9143
:10072000CF91BF91AF919F918F917F916F915F9189
:100730004F913F912F910F900FBE0F901F901895E2
:100740008EB18F7D8EB982E08A95F1F700C08EB1AF
:1007500080628EB908958EB18F7E8EB98EB1806120
:100760008EB908958EB180618EB98EB180628EB9D6
:1007700008958F929F92AF92BF92CF92DF92EF92A5
:10078000FF92CF936B017C0185B1806485B90E9493
:10079000B2030E947200CE2DCF708D2C9E2CAF2CF8
:1007A000BB248DE00E941F048C2F0E945204882DD0
:1007B0000E9452048C2D0E9452048DE00E941F045E
:1007C00012B818B88EB18F708EB98FEF97E4019779
:1007D000F1F700C0000085B1816085B98EB1877FD7
:1007E0008EB98FEF97E40197F1F700C000000E94E7
:1007F00042000E94B203CF91FF90EF90DF90CF9024
:10080000BF90AF909F908F9008958FE28093C40027
:100810001092C5001092C00088E98093C10086E064
:100820008093C2000895803248F4873039F08D30CB
:1008300029F08A3019F0883009F080E4089520E02A
:1008400030E09091C00095FF07C00E941304809390
:10085000C60081E090E008952F5F3F4F293E93E06E
:1008600039077CF380E090E00895805D8A33C8F01A
:100870008A3361F08B3361F08C3361F08D3361F03A
:100880008E3361F08F3361F486E4089581E4089536
:1008900082E4089583E4089584E4089585E4089546
:1008A00080E00895CF93DF93C82F80E30E941F0458
:1008B00088E70E941F04DC2FDF708C2F82958F70D9
:1008C0000E9435040E941F048D2F0E9435040E944F
:1008D0001F0480E20E941F04DF91CF9108958DE0F4
:1008E0000E941F048DE20E941F048DE00E941F04DD
:1008F00083E50E941F0489E70E941F0483E70E948A
:100900001F0484E70E941F0485E60E941F048DE6F1
:100910000E941F0480E20E941F0483E60E941F04BD
:1009200088E60E941F0485E60E941F0483E60E9459
:100930001F048BE60E941F048AE30E941F040E948A
:10094000D801089582E40E941F048CE60E941F04CF
:1009500089E60E941F0484E70E941F0484E70E9426
:100960001F0485E60E941F0482E70E941F0480E2A4
:100970000E941F0482E70E941F0485E60E941F0454
:1009800081E60E941F0484E60E941F0489E70E94FA
:0E0990001F048DE00E941F040895F894FFCF0D
:00000001FF
