S01A0000426C69747465725F436F6E74726F6C6C65722E73726563B1
S11300000C942E000C9440000C9440000C9440007E
S11300100C9440000C9440000C9440000C9440005C
S11300200C9440000C9440000C9440000C9440004C
S11300300C9440000C9484000C9440000C944000F8
S11300400C9440000C9440000C9440000C9440002C
S11300500C9440000C9440000C94400011241FBEEA
S1130060CFEFD4E0DEBFCDBF21E0A0E0B1E001C01E
S11300701D92A230B207E1F70E94DB000C94DF006E
S11300800C94000020E030E09091C00095FF05C082
S11300908093C60081E090E008952F5F3F4F293E92
S11300A093E039078CF380E090E008958DE00E949E
S11300B0420083E50E94420089E70E94420083E7F0
S11300C00E94420084E70E94420085E60E944200AA
S11300D08DE60E94420080E20E94420083E60E9474
S11300E0420088E60E94420085E60E94420083E6C0
S11300F00E9442008BE60E9442008AE30E94420072
S11301008DE00E94420008951F920F920FB60F9245
S113011011242F933F934F935F936F937F938F9308
S11301209F93AF93BF93EF93FF938091C600809307
S11301300101882361F08D3231F4809100018095B2
S11301408093000104C0833511F40E94560080910D
S11301500001882389F080910101803240F48730C6
S113016031F08D3021F08A3011F0883029F49091EB
S1130170C00095FD8093C600FF91EF91BF91AF91B0
S11301809F918F917F916F915F914F913F912F91AB
S11301900F900FBE0F901F9018958FE28093C400AC
S11301A01092C5001092C00088E98093C10086E0D7
S11301B08093C20008950E94CD007894FFCFF894F4
S10501C0FFCF6B
S9030000FC
