:100000000C942E000C9440000C9440000C94400082
:100010000C9440000C9440000C9440000C94400060
:100020000C9440000C9440000C9440000C94400050
:100030000C9440000C946F030C9440000C9440000E
:100040000C9440000C9440000C9440000C94400030
:100050000C9440000C9440000C94400011241FBEEE
:10006000CFEFD4E0DEBFCDBF21E0A0E0B1E001C022
:100070001D92A330B207E1F70E943B030C94790470
:100080000C94000085B18F7E85B985B1806185B9FA
:1000900008959EB19F779EB99EB190649EB982B932
:1000A0000E94420008952EB120682EB9809301016C
:1000B0009093020182B98091020188B90E944200A6
:1000C0000895CF93DF93EB0125B12F7B25B90E94D3
:1000D0004900CE010E94530085B1806485B9DF914B
:1000E000CF9108958FEF81B987B9089511B817B8E6
:1000F0002FEF8FE392E0215080409040E1F700C065
:1001000000000895CF92DF92EF92FF92CF93DF939A
:10011000EC0185B18F7B85B982E290E00E944900B5
:10012000C12CD12C760108C0CE010E9453008FEF64
:10013000C81AD80AE80AF80AC1148CE2D80681E085
:10014000E806F10488F385B1806485B9DF91CF9129
:10015000FF90EF90DF90CF900895CF93DF9385B11C
:100160008F7B85B982E290E00E944900C0E0D0E038
:1001700005C08FEF9FEF0E9453002196C1158EE1BD
:10018000D807BCF3C0E0D0E005C080E090E00E945A
:1001900053002196C1158EE1D807BCF3C0E0D0E032
:1001A00005C08EED97EF0E9453002196C1158EE198
:1001B000D807BCF3C0E0D0E005C080E098EF0E9413
:1001C00053002196C1158EE1D807BCF3C0E0D0E002
:1001D00005C087EE9CEF0E9453002196C1158EE169
:1001E000D807BCF3C0E0D0E005C08FE190E00E94EA
:1001F00053002196C1158EE1D807BCF3C0E0D0E0D2
:1002000005C08FE198EF0E9453002196C1158EE141
:10021000D807BCF3C0E0D0E005C080EE97E00E94B4
:1002200053002196C1158EE1D807BCF3C0E0D0E0A1
:1002300005C080EE9FEF0E9453002196C1158EE10C
:10024000D807BCF3C0E0D0E005C08FE195E00E9484
:1002500053002196C1158EE1D807BCF385B18064A7
:1002600085B9DF91CF9108952FEF8FE392E0215070
:1002700080409040E1F700C0000085B1816085B901
:100280008FEF93E20197F1F700C0000085B18E7FF8
:1002900085B98FEF9BE60197F1F700C0000085B1AB
:1002A000816085B98FEF9BE60197F1F700C00000F0
:1002B00061E270E087E090E00E94610061E070E040
:1002C00080E090E00E94610063E270E087E090E0EF
:1002D0000E94610060E070E080E190E00E946100B7
:1002E0008FEF97ED0197F1F700C0000063E370E036
:1002F00087E090E00E94610060E378E681E190E0B1
:100300000E94610060E070E082E090E00E94610085
:100310000E94AD00089585B18F7B85B98FEF9FEF67
:100320000E94820080E090E00E9482008EED97EFB4
:100330000E9482008FE190E00E9482008FE195E0B0
:100340000E94820080E098EF0E9482008FE198EF87
:100350000E94820080EE97E00E94820080EE9FEF74
:100360000E9482008FEF9FE70E94820087EE9CEF41
:100370000E9482000E94AD0085B1806485B9089515
:10038000CF93DF930E9476008EB18F7B8EB986B1BA
:1003900080B1C6B1D0E0DC2FCC2780B1C82B8EB1A4
:1003A00080648EB90E947200CE01DF91CF910895D2
:1003B0001F93CF93DF9385B18F7B85B98EB18F77F4
:1003C0008EB90E94C001C82FD92F8DE00E9405046C
:1003D00083E50E94050483E40E94050482E50E94EF
:1003E000050485E40E94050485E40E9405048EE46A
:1003F0000E94050480E20E94050483E50E94050432
:1004000084E50E94050481E40E94050484E50E94BD
:10041000050485E50E94050483E50E9405048AE33E
:100420000E94050480E20E94050480E30E94050406
:1004300088E70E9405041D2F1F708D2F82958F70F5
:100440000E94CF030E940504812F0E94CF030E94C7
:100450000504DC2FDF708C2F82958F700E94CF03F4
:100460000E9405048D2F0E94CF030E9405048DE099
:100470000E94050485B1806485B9DF91CF911F91F9
:100480000895809301019093020182B98091020145
:1004900088B908958DB180618DB98DB180628DB9B3
:1004A0008DB180648DB98DB180688DB92FEF8FE3E8
:1004B00092E0215080409040E1F700C00000089594
:1004C00085B1806485B90E9472000E944A0212B808
:1004D00018B88EB18F7E8EB98EB18F7D8EB98EB1E8
:1004E0008F7B8EB98EB18F778EB983E397E00197BA
:1004F000F1F785B1816085B98EB1877F8EB90E9491
:1005000042008EB188608EB98EB180618EB98EB195
:1005100080628EB908958EB18F7D8EB982E08A9502
:10052000F1F700C08EB180628EB908958EB18F7ED2
:100530008EB982E08A95F1F700C08EB180618EB9E4
:100540000895CF92DF92EF92FF928EB180628EB9C2
:100550000E94600285B18F7B85B985B1806885B9BD
:100560008EB180688EB982E290E00E9449000E94BC
:100570007600C12CD12C760109C00E9496020E94FF
:1005800042008FEFC81AD80AE80AF80AC1148CE2B0
:10059000D80681E0E806F10480F385B1806485B96E
:1005A00085B18F7785B9FF90EF90DF90CF90089558
:1005B000CF92DF92EF92FF920E94600285B18F7B13
:1005C00085B985B1806885B982E290E00E944900D2
:1005D0008EB180688EB9C12CD12C76010DC08FE10F
:1005E00090E00E9441020E948B020E9442008FEF25
:1005F000C81AD80AE80AF80AC11484E6D806E10441
:10060000F10468F3C12CD12C76010DC080EE97E087
:100610000E9441020E948B020E9442008FEFC81A82
:10062000D80AE80AF80AC11484E6D806E104F104FD
:1006300068F3C12CD12C76010DC080E098EF0E94A8
:1006400041020E948B020E9442008FEFC81AD80A12
:10065000E80AF80AC11484E6D806E104F10468F354
:1006600085B1806485B985B18F7785B9FF90EF90AA
:10067000DF90CF9008958DB188608DB98EB188607C
:100680008EB984B1806884B985B18F7785B984B11A
:10069000806484B984B1806284B984B1806184B992
:1006A0008DB180648DB98DB180688DB985B180645C
:1006B00085B985B1806185B98EB180648EB98EB1FE
:1006C00080688EB98FEF81B987B90E94EB030E94D1
:1006D000340178940E941B040E944E04FFCF1F92A5
:1006E0000F920FB60F9211242F933F934F935F9366
:1006F0006F937F938F939F93AF93BF93CF93EF931A
:10070000FF93C091C600CC2339F1CD3231F48091F2
:1007100000018095809300011FC0C33719F40E9427
:100720001B041AC0CC3619F40E94D80115C0C23679
:1007300029F480E098EF0E9482000EC0C73719F4B8
:100740000E94D80209C0C23719F40E94A10204C055
:10075000C43511F40E948B0180910001882369F057
:10076000C03240F4C73031F0CD3021F0CA3011F042
:10077000C83019F48C2F0E940504FF91EF91CF919E
:10078000BF91AF919F918F917F916F915F914F91A9
:100790003F912F910F900FBE0F901F901895805D85
:1007A0008A33C0F08A3359F08B3359F08C3359F0C7
:1007B0008D3359F08E3359F08F3359F0089581E419
:1007C000089582E4089583E4089584E4089585E417
:1007D000089586E408958FE28093C4001092C500C6
:1007E0001092C00088E98093C10086E08093C20027
:1007F0000895803248F4873039F08D3029F08A30FE
:1008000019F0883009F080E4089520E030E09091FC
:10081000C00095FF07C00E94F9038093C60081E0E5
:1008200090E008952F5F3F4F293E93E039077CF316
:1008300080E090E008958DE00E9405048DE20E9422
:1008400005048DE00E94050483E50E94050489E704
:100850000E94050483E70E94050484E70E940504C2
:1008600085E60E9405048DE60E94050480E20E9450
:10087000050483E60E94050488E60E94050485E6D7
:100880000E94050483E60E9405048BE60E9405048D
:100890008AE30E9405040E94D801089582E40E9420
:1008A00005048CE60E94050489E60E94050484E79D
:1008B0000E94050484E70E94050485E60E94050461
:1008C00082E70E94050480E20E94050482E70E94FC
:1008D000050485E60E94050481E60E94050484E67D
:1008E0000E94050489E70E9405048DE00E9405042A
:0608F0000895F894FFCF0B
:00000001FF
